:100000000C942A000C9477170C94C7170C941718AB
:100010000C94A22A0C94D52A0C94082B0C943B2BFC
:100020000C946E2B0C94A12B0C94D42B0C94072CB9
:100030000C9447000C9421330C949C330C940E3494
:100040000C94D1080C9447000C9447000C94470082
:100050000C94470011241FBECFE5D8E0DEBFCDBF12
:1000600013E0A0E6B0E0ECE8FBE702C005900D92DB
:10007000A235B107D9F713E0A2E5B3E001C01D92A4
:10008000AC3AB107E1F70E9449340C94C43D0C949A
:100090000000EF92FF920F931F937B018C0120E0F1
:1000A00030E040E05FE40E94F50388238CF0C80153
:1000B000B70120E030E040E05FE40E94C1010E940F
:1000C00055049B01AC01205030404040504806C0D0
:1000D000C801B7010E9455049B01AC01B901CA01D6
:1000E0001F910F91FF90EF900895A0E0B0E0EBE733
:1000F000F0E00C94583DDC012B01FA019C91923008
:1001000008F439C1EB018881823008F433C194309E
:1001100069F4843009F02FC111969C91119789815F
:10012000981709F428C1A4EDB1E025C1843009F481
:1001300021C18230A9F4923009F01DC19A01AD01AC
:1001400088E0EA010990AE01E90109929E0181501F
:10015000C1F7E201898111969C918923818308C1AD
:10016000923009F407C112962D903C901397EB0141
:100170008A819B811496AD90BD90CD90DC901797AD
:10018000EC80FD800E811F819101281B390BB90184
:1001900037FF04C066277727621B730B6032710537
:1001A0000CF061C0121613066CF537014801062EDB
:1001B00004C096948794779467940A94D2F721E0C8
:1001C00030E040E050E004C0220F331F441F551FB1
:1001D0006A95D2F721503040404050402E213F21B7
:1001E00040235123211531054105510521F021E01E
:1001F00030E040E050E079018A01E628F72808293C
:1002000019293CC0232BD1F1260E371E350146019A
:10021000062E04C096948794779467940A94D2F734
:1002200021E030E040E050E004C0220F331F441FC3
:10023000551F6A95D2F721503040404050402A2146
:100240003B214C215D21211531054105510521F04E
:1002500021E030E040E050E059016A01A628B728CB
:10026000C828D9280BC0821593052CF01C01AA249C
:10027000BB24650103C0EE24FF24870111969C91E5
:10028000D20111968C91981709F445C0992339F041
:10029000A80197012A193B094C095D0906C0A6016E
:1002A00095012E193F09400B510B57FD08C01182D3
:1002B0003382228224833583468357831DC081E0A5
:1002C00081833382228288279927DC01821B930B4A
:1002D000A40BB50B84839583A683B7830DC0220F2F
:1002E000331F441F551F24833583468357838281E0
:1002F000938101979383828324813581468157813D
:10030000DA01C9010197A109B1098F5F9F4FAF4F72
:10031000BF4328F30BC0918333822282EA0CFB1C7B
:100320000C1D1D1DE482F5820683178383E0808304
:10033000248135814681578157FF1AC0C901AA27F8
:1003400097FDA095BA2F81709070A070B0705695EF
:10035000479537952795822B932BA42BB52B848318
:100360009583A683B7838281938101969383828349
:10037000DF0101C0D201CD01CDB7DEB7E2E10C94BF
:10038000743DA0E2B0E0E7ECF1E00C94643D6983D9
:100390007A838B839C832D833E834F835887E9E048
:1003A000EE2EF12CEC0EFD1ECE010196B7010E943F
:1003B00046068E010F5E1F4FCE010596B8010E94C2
:1003C00046068A8991E089278A8BC701B801AE0168
:1003D000475E5F4F0E9475000E947105A096E6E09F
:1003E0000C94803DA0E2B0E0E8EFF1E00C94643DB5
:1003F00069837A838B839C832D833E834F835887C5
:10040000F9E0EF2EF12CEC0EFD1ECE010196B701A6
:100410000E9446068E010F5E1F4FCE010596B80161
:100420000E944606C701B801AE01475E5F4F0E94B9
:1004300075000E947105A096E6E00C94803DA0E254
:10044000B0E0E5E2F2E00C94583D69837A838B8357
:100450009C832D833E834F835887CE010196BE0136
:10046000675F7F4F0E944606CE010596BE016F5E14
:100470007F4F0E9446069985923088F089898230A4
:10048000C8F0943019F4823051F404C0843029F457
:10049000923081F484ED91E0C6C0923049F420E0BE
:1004A0009A858A89981321E02A87CE010996BBC0D4
:1004B000823049F420E09A858A89981321E02A8BBA
:1004C000CE014196B0C02D843E844F8458886D88FB
:1004D0007E888F88988CEE24FF248701AA24BB2471
:1004E000650140E050E060E070E0E0E0F0E0C10174
:1004F00081709070892BE9F0E60CF71C081D191D1E
:100500009A01AB012A0D3B1D4C1D5D1D80E090E062
:10051000A0E0B0E0E614F7040805190520F481E036
:1005200090E0A0E0B0E0BA01A901480F591F6A1F8E
:100530007B1FAA0CBB1CCC1CDD1C97FE08C081E0F5
:1005400090E0A0E0B0E0A82AB92ACA2ADB2A3196B6
:10055000E032F10549F0660C771C881C991C569412
:10056000479437942794C3CFFA85EA892B893C892D
:100570008B859C85280F391F2E5F3F4F17C0CA01FE
:1005800081709070892B61F016950795F794E79428
:1005900080E090E0A0E0B0E8E82AF92A0A2B1B2BC3
:1005A00076956795579547952F5F3F4F77FDE7CF36
:1005B0000CC0440F551F661F771F17FD4160EE0CDE
:1005C000FF1C001F111F21503040403090E05907A0
:1005D00090E0690790E4790760F32B8F3C8FDB0193
:1005E000CA018F779070A070B07080349105A1051A
:1005F000B10561F447FD0AC0E114F10401051105DC
:1006000029F0405C5F4F6F4F7F4F40781A8EFE1786
:1006100011F081E08A8F4D8F5E8F6F8F78A383E01A
:10062000898FCE0149960E947105A096E2E10C9453
:10063000743DA8E1B0E0EFE1F3E00C94603D698324
:100640007A838B839C832D833E834F835887B9E0C5
:10065000EB2EF12CEC0EFD1ECE010196B7010E948F
:1006600046068E010F5E1F4FCE010596B8010E940F
:1006700046062985223008F47EC03989323010F4CC
:10068000B8017CC08A859A8989278A87243011F02D
:10069000223031F4231709F06EC064ED71E06EC0B2
:1006A000343039F41D861E861F86188A1C861B86E8
:1006B00004C0323021F484E08987B7015FC02B8504
:1006C0003C858B899C89281B390B3C872B87ED84C3
:1006D000FE840F851889AD88BE88CF88D88CEA142F
:1006E000FB040C051D0540F4EE0CFF1C001F111F40
:1006F000215030403C872B8720E030E040E050E044
:1007000080E090E0A0E0B0E460E070E0EA14FB0478
:100710000C051D0540F0282B392B4A2B5B2BEA18C2
:10072000FB080C091D09B695A79597958795EE0CC2
:10073000FF1C001F111F6F5F7F4F6F31710531F775
:10074000DA01C9018F779070A070B0708034910584
:10075000A105B10561F427FD0AC0E114F10401050A
:10076000110529F0205C3F4F4F4F5F4F20782D87B8
:100770003E874F87588BBE01675F7F4FCB010E943A
:1007800071056896EAE00C947C3DA8E1B0E0EBECE2
:10079000F3E00C94643D69837A838B839C832D837F
:1007A0003E834F83588789E0E82EF12CEC0EFD1E26
:1007B000CE010196B7010E9446068E010F5E1F4FC3
:1007C000CE010596B8010E9446068985823040F028
:1007D0008989823028F0C701B8010E94BE0601C095
:1007E0008FEF6896E6E00C94803DA8E1B0E0EBEF77
:1007F000F3E00C94643D69837A838B839C832D831F
:100800003E834F83588789E0E82EF12CEC0EFD1EC5
:10081000CE010196B7010E9446068E010F5E1F4F62
:10082000CE010596B8010E9446068985823040F0C7
:100830008989823028F0C701B8010E94BE0601C034
:100840008FEF6896E6E00C94803DA8E1B0E0EBE223
:10085000F4E00C94643D69837A838B839C832D83BD
:100860003E834F83588789E0E82EF12CEC0EFD1E65
:10087000CE010196B7010E9446068E010F5E1F4F02
:10088000CE010596B8010E9446068985823040F067
:100890008989823028F0C701B8010E94BE0601C0D4
:1008A00081E06896E6E00C94803DACE0B0E0EBE5DA
:1008B000F4E00C94683D69837A838B839C83CE013A
:1008C0000196BE016B5F7F4F0E9446068D8182308C
:1008D00061F1823050F1843021F48E81882351F10E
:1008E0002EC02F81388537FD20C06E812F31310514
:1008F0001CF06623F9F023C08EE190E0821B930B7D
:1009000029853A854B855C8504C056954795379572
:1009100027958A95D2F76623B1F05095409530958A
:1009200021953F4F4F4F5F4F0EC020E030E040E039
:1009300050E009C02FEF3FEF4FEF5FE704C020E02A
:1009400030E040E050E8B901CA012C96E2E00C9496
:10095000843DA8E0B0E0EFEAF4E00C94603D7B0158
:100960008C01611571058105910519F482E0898377
:1009700060C083E089838EE1C82ED12CDC82CB82DB
:10098000ED82FE820F831887C801B7010E942205FD
:10099000FC013197F7FF3BC0222733272E1B3F0B6B
:1009A00057016801022E04C0D694C794B794A79447
:1009B0000A94D2F740E050E060E070E081E090E01F
:1009C000A0E0B0E004C0880F991FAA1FBB1F2A95A2
:1009D000D2F70197A109B1098E219F21A023B1234C
:1009E0000097A105B10521F041E050E060E070E022
:1009F0004A295B296C297D294D835E836F83788723
:100A00008EE190E08E1B9F0B9C838B8312C03097EE
:100A100081F00E2E04C0EE0CFF1C001F111F0A9463
:100A2000D2F7ED82FE820F831887CE1ADF0ADC82AE
:100A3000CB821A82CE0101960E9471052896EAE0C7
:100A40000C947C3DEF92FF920F931F937B018C01DE
:100A500080E0E81680E0F80681E0080780E01807EB
:100A600088F48FEFE816F1040105110531F028F044
:100A700088E090E0A0E0B0E017C080E090E0A0E067
:100A8000B0E012C080E0E81680E0F80680E00807D9
:100A900081E0180728F088E190E0A0E0B0E004C011
:100AA00080E190E0A0E0B0E020E230E040E050E003
:100AB000281B390B4A0B5B0B04C016950795F7945E
:100AC000E7948A95D2F7F701E452FE4F8081281B04
:100AD000310941095109C9011F910F91FF90EF9010
:100AE0000895DF92EF92FF920F931F93FC01E48031
:100AF000F58006811781D1808081823048F480E0C2
:100B000090E0A0E1B0E0E82AF92A0A2B1B2BA5C04F
:100B1000843009F49FC0823021F4EE24FF24870141
:100B200005C0E114F1040105110519F4E0E0F0E05D
:100B300096C0628173819FEF623879070CF05BC0C9
:100B400022E83FEF261B370B2A3131052CF020E03D
:100B500030E040E050E02AC0B801A701022E04C0F6
:100B600076956795579547950A94D2F781E090E07E
:100B7000A0E0B0E004C0880F991FAA1FBB1F2A95F0
:100B8000D2F70197A109B1098E219F21A023B1239A
:100B90000097A105B10521F081E090E0A0E0B0E070
:100BA0009A01AB01282B392B4A2B5B2BDA01C901A7
:100BB0008F779070A070B07080349105A105B10559
:100BC00039F427FF09C0205C3F4F4F4F5F4F04C0EF
:100BD000215C3F4F4F4F5F4FE0E0F0E02030A0E05E
:100BE0003A07A0E04A07A0E45A0710F0E1E0F0E07D
:100BF00079018A0127C06038710564F5FB01E1586D
:100C0000FF4FD801C7018F779070A070B07080340B
:100C10009105A105B10539F4E7FE0DC080E490E02F
:100C2000A0E0B0E004C08FE390E0A0E0B0E0E80E08
:100C3000F91E0A1F1B1F17FF05C016950795F7948D
:100C4000E794319687E016950795F794E7948A958F
:100C5000D1F705C0EE24FF248701EFEFF0E06E2FFF
:100C6000679566276795902F9F77D794DD24D79453
:100C70008E2F8695492F462B582F5D29B701CA0123
:100C80001F910F91FF90EF90DF900895FC01DB0121
:100C9000408151812281622F6F7770E0221F2227CD
:100CA000221F9381892F880F822B282F30E0991FD4
:100CB0009927991F11969C93119721153105A9F534
:100CC000411551056105710511F482E037C082E8D4
:100CD0009FEF13969C938E9312979A01AB0167E056
:100CE000220F331F441F551F6A95D1F783E08C9361
:100CF0000DC0220F331F441F551F12968D919C91DA
:100D00001397019713969C938E931297203080E04F
:100D1000380780E0480780E4580758F314962D936D
:100D20003D934D935C93179708952F3F310579F4C8
:100D3000411551056105710519F484E08C930895FE
:100D400064FF03C081E08C9312C01C9210C02F5727
:100D5000304013963C932E93129783E08C9387E058
:100D6000440F551F661F771F8A95D1F7706414963C
:100D70004D935D936D937C93179708951F93DC01BA
:100D8000FB019C91923008F447C08081823008F4C6
:100D900043C0943051F411961C91843099F58181AF
:100DA000682F70E0611B71093FC0843021F09230E0
:100DB00031F48230B9F18181882389F12DC01196F7
:100DC0001C9111978230F1F081811817D9F4129695
:100DD0002D913C911397828193818217930794F010
:100DE00028173907BCF014968D919D910D90BC91F8
:100DF000A02D2481358146815781281739074A075C
:100E00005B0718F4112341F00AC082179307A40767
:100E1000B50740F4112319F061E070E005C06FEFF1
:100E20007FEF02C060E070E0CB011F910895DF9377
:100E3000CF93CDB7DEB7A7E2B0E0E7E2F0E0808184
:100E400080648C93A7E2B0E0E7E2F0E080818F77E6
:100E50008C93A7E2B0E0E7E2F0E0808180628C93BF
:100E6000A6E2B0E0E6E2F0E08081887F8C93A6E223
:100E7000B0E0E6E2F0E0808187608C93A6E2B0E02B
:100E8000E6E2F0E08081877F8C93A6E2B0E0E6E2C4
:100E9000F0E080818F7D8C93A6E2B0E0E6E2F0E0A6
:100EA000808180688C93CF91DF910895DF93CF93F9
:100EB000CDB7DEB728970FB6F894DEBF0FBECDBF13
:100EC0008E8378876F831A821B821C821D8219820F
:100ED0008091DC02813009F05FC082E08093DC0207
:100EE000A7E2B0E0E7E2F0E08081807E8C93A7E2A9
:100EF000B0E0E7E2F0E090818E81892B8C93A6E24E
:100F0000B0E0E6E2F0E0808180648C930BC08A81DF
:100F10009B81AC81BD810196A11DB11D8A839B83FC
:100F2000AC83BD83E6E2F0E0808182958F70882FEC
:100F300090E081709070009761F48A819B81AC8110
:100F4000BD81803523EC920720E0A20720E0B207A4
:100F5000F1F68A819B81AC81BD81803523EC9207BB
:100F600020E0A20720E0B20719F481E0898316C0CF
:100F7000A6E2B0E0E6E2F0E0808180618C93E5E2F9
:100F8000F0E08081882F90E0EF81F8859183808365
:100F900081E08093DC0202C083E089838981289606
:100FA0000FB6F894DEBF0FBECDBFCF91DF9108958D
:100FB000DF93CF9300D000D0CDB7DEB79C838B8377
:100FC0001A828091DC02813089F58B819C810097A7
:100FD00051F1198221C0EB81FC812081318189810D
:100FE000882F90E0F901E80FF91F4081EB81FC8127
:100FF000228133818981882F90E0880F991FF90120
:10100000E80FF91F808191819C01842FB9010E9412
:10101000560789818F5F8983EB81FC819481898167
:101020008917C8F205C082E08A8302C083E08A8300
:101030008A810F900F900F900F90CF91DF910895BC
:10104000DF93CF93CDB7DEB727970FB6F894DEBF07
:101050000FBECDBF8A837C836B835E834D831982F1
:101060008091DC02813009F03EC08B819C81009729
:10107000A1F18D819E81009781F182E08093DC0255
:1010800081E080935B038B819C81909355038093D7
:1010900054038D819E819093570380935603A7E25A
:1010A000B0E0E7E2F0E08081807E8C93A7E2B0E0E0
:1010B000E7E2F0E090818A81892B8C93A6E2B0E090
:1010C000E6E2F0E0808180648C93A6E2B0E0E6E2A4
:1010D000F0E0808188608C9302C082E089838981FE
:1010E0008F838F8102C083E0898327960FB6F8949F
:1010F000DEBF0FBECDBFCF91DF910895DF93CF93B9
:1011000000D00F92CDB7DEB79B838A83198280917E
:10111000DC028130E9F58A819B810097B1F181E0A1
:1011200080935B038A819B8190935903809358033A
:1011300010925A03A7E2B0E0E7E2F0E08081807EFF
:101140008C93A7E2B0E0E7E2F0E04081E091580341
:10115000F09159032081318180915A03882F90E0CA
:10116000F901E80FF91F8081842B8C93A6E2B0E08F
:10117000E6E2F0E0808180648C93A6E2B0E0E6E2F3
:10118000F0E0808188608C9305C082E0898302C092
:1011900083E0898389810F900F900F90CF91DF9129
:1011A00008951F920F920FB60F9211242F933F9321
:1011B0004F935F936F937F938F939F93AF93BF935F
:1011C000EF93FF93DF93CF93CDB7DEB780915B03AF
:1011D0008130D9F4A0915403B0915503E5E2F0E0D9
:1011E0008081882F90E08D939C9381E08093DC0236
:1011F000E0915603F09157030995A6E2B0E0E6E2CC
:10120000F0E08081877F8C936BC080915B0381309D
:1012100009F066C0E0915803F091590322813381AF
:1012200080915A03882F90E0880F991FD901A80F49
:10123000B91FE5E2F0E08081882F90E011969C9341
:101240008E9380915A038F5F80935A03E0915803E5
:10125000F0915903948180915A039817A9F4E09171
:101260005803F09159030580F681E02D09951092FD
:101270005A03A6E2B0E0E6E2F0E08081877F8C933B
:1012800081E08093DC022CC0E0915803F091590377
:10129000948180915A03981719F1A7E2B0E0E7E230
:1012A000F0E08081807E8C93A7E2B0E0E7E2F0E09E
:1012B0004081E0915803F091590320813181809160
:1012C0005A03882F90E0F901E80FF91F8081842BE1
:1012D0008C93A6E2B0E0E6E2F0E0808180648C933B
:1012E000CF91DF91FF91EF91BF91AF919F918F913E
:1012F0007F916F915F914F913F912F910F900FBE12
:101300000F901F901895DF93CF93CDB7DEB70E9453
:10131000601E0E94DE180E9417070E949030CF9135
:10132000DF9108950F931F93DF93CF93CDB7DEB76F
:10133000CB55D0400FB6F894DEBF0FBECDBFFE0137
:10134000EE5AFF4F1082FE01EF5AFF4F1082FE014E
:10135000E25BFF4F1082FE01E45BFF4F11821082BF
:10136000FE01E85BFF4F11821082FE01E95BFF4F37
:1013700010820E94721C80E690E00E947C1CFE019C
:10138000E05BFF4F108294C10E946618FE01ED5A87
:10139000FF4F8083FE01ED5AFF4F80818F3FA1F305
:1013A000FE01ED5AFF4F80818823B1F1FE01ED5A15
:1013B000FF4F8081813081F1FE01ED5AFF4F808126
:1013C000823051F1FE01ED5AFF4F8081833021F1CF
:1013D000FE01ED5AFF4F80818430F1F0FE01ED5A9D
:1013E000FF4F80818530C1F0FE01ED5AFF4F8081B3
:1013F000863091F0FE01ED5AFF4F8081873061F019
:10140000FE01ED5AFF4F8081883031F0FE01ED5A28
:10141000FF4F8081893071F5FE01E05BFF4F81E075
:1014200060810E942B1BFE01ED5AFF4F8081882FA7
:1014300090E0A0E0B0E0BC01CD010E94891BFE015C
:10144000EE5AFF4F8081282F30E0CE018C5A9F4FFB
:10145000DC01A20FB31FFE01ED5AFF4F80818C9378
:10146000DE01AE5ABF4FFE01EE5AFF4F80818F5F03
:101470008C9389C0FE01ED5AFF4F8081833461F562
:101480000E94721CFE01E15BFF4F108216C0FE013C
:10149000E15BFF4F8081282F30E0CE018C5A9F4FB7
:1014A000FC01E20FF31F1082DE01A15BBF4FFE01C2
:1014B000E15BFF4F80818F5F8C93FE01E15BFF4F0B
:1014C000DE01AE5ABF4F90818C91981700F3FE0158
:1014D000EE5AFF4F1082F3C0FE01ED5AFF4F80819C
:1014E000843409F050C0DE01AE5ABF4FFE01EE5AFF
:1014F000FF4F808181508C93DE01A05BBF4FFE01C6
:10150000E05BFF4F808181508C930E94721C80E6CB
:1015100090E00E947C1CFE01E15BFF4F108225C021
:10152000FE01E15BFF4F81E060810E942B1BFE0109
:10153000E15BFF4F8081282F30E0CE018C5A9F4F16
:10154000FC01E20FF31F8081882F90E0A0E0B0E063
:10155000BC01CD010E94891BDE01A15BBF4FFE01D2
:10156000E15BFF4F80818F5F8C93FE01E15BFF4F5A
:10157000DE01AE5ABF4F90818C91981788F2FE0120
:10158000E05BFF4F1082FE01E05BFF4F8081833004
:1015900009F085C0FE01ED5BFF4F80E090E0A8E41C
:1015A000B3E480839183A283B3838E01015C1F4FD8
:1015B000FE01ED5BFF4F608171818281938120E0AC
:1015C00030E04AEF54E40E941F02DC01CB01F80135
:1015D00080839183A283B383FE01FF966081718132
:1015E0008281938120E030E040E85FE30E9425049F
:1015F00088232CF481E090E09EAF8DAF46C0FE01C1
:10160000FF96608171818281938120E03FEF4FE7F7
:1016100057E40E94C503181664F5FE01ED5BFF4F09
:10162000608171818281938120E030E040E251E469
:101630000E941F02DC01CB01BC01CD010E944900C8
:10164000DC01CB019EAF8DAF0FC088EC90E09CAF6A
:101650008BAF8BAD9CAD0197F1F79CAF8BAF8DAD90
:101660009EAD01979EAF8DAF8DAD9EAD009769F792
:1016700016C0FE01FF9660817181828193810E9474
:101680004900DC01CB019EAF8DAF8DAD9EAD9AAF11
:1016900089AF89AD9AAD0197F1F79AAF89AFDE01B5
:1016A000A05BBF4FFE01E05BFF4F80818F5F8C939B
:1016B000FE01E05BFF4F8081843008F465CE0E941C
:1016C000721CFE01EE5AFF4F80818823B1F0CE01DB
:1016D0008C5A9F4F64E00E94D60EFE01E45BFF4FE0
:1016E00091838083FE01E45BFF4F808191810E94A2
:1016F000490FFE01E25BFF4F8083FE01E25BFF4F7B
:101700008081813009F0A3C27EC28BE690E00E9406
:101710007C1CFE01E15BFF4F1082AEC10E94661887
:10172000FE01ED5AFF4F8083FE01ED5AFF4F80818D
:101730008F3FA1F3FE01ED5AFF4F80818823B9F15D
:10174000FE01ED5AFF4F8081813089F1FE01ED5A93
:10175000FF4F8081823059F1FE01ED5AFF4F8081A9
:10176000833029F1FE01ED5AFF4F80818430F9F07A
:10177000FE01ED5AFF4F80818530C9F0FE01ED5A20
:10178000FF4F8081863099F0FE01ED5AFF4F808136
:10179000873069F0FE01ED5AFF4F8081883039F0C3
:1017A000FE01ED5AFF4F8081893009F0AAC0FE0189
:1017B000EF5AFF4F8081282F30E0CE01885A9F4F8B
:1017C000DC01A20FB31FFE01ED5AFF4F80818C9305
:1017D000DE01AF5ABF4FFE01EF5AFF4F80818F5F8E
:1017E0008C93FE01E15BFF4F81E060810E942B1B27
:1017F000FE01ED5AFF4F8081882F90E0A0E0B0E01D
:10180000BC01CD010E94891B80E090E0A8ECB2E40D
:101810008DAB9EABAFABB8AF6DA97EA98FA998ADCC
:1018200020E030E04AEF54E40E941F02DC01CB01CB
:1018300089AB9AABABABBCAB69A97AA98BA99CA9C4
:1018400020E030E040E85FE30E94250488232CF488
:1018500081E090E098AB8FA73FC069A97AA98BA9D6
:101860009CA920E03FEF4FE757E40E94C5031816FC
:101870004CF56DA97EA98FA998AD20E030E040E23B
:1018800051E40E941F02DC01CB01BC01CD010E948A
:101890004900DC01CB0198AB8FA70FC088EC90E02A
:1018A0009EA78DA78DA59EA50197F1F79EA78DA751
:1018B0008FA598A9019798AB8FA78FA598A9009796
:1018C00069F714C069A97AA98BA99CA90E9449004B
:1018D000DC01CB0198AB8FA78FA598A99CA78BA7FC
:1018E0008BA59CA50197F1F79CA78BA7FE01E15B57
:1018F000FF4F81E060810E942B1B8AE20E940A1A3E
:1019000039C0FE01ED5AFF4F8081833499F50E9462
:10191000721C8BE690E00E947C1CFE01E05BFF4F96
:10192000108216C0FE01E05BFF4F8081282F30E05F
:10193000CE01885A9F4FFC01E20FF31F1082DE0197
:10194000A05BBF4FFE01E05BFF4F80818F5F8C93F8
:10195000FE01E05BFF4FDE01AF5ABF4F90818C91DB
:10196000981700F3FE01EF5AFF4F1082FE01E15B72
:10197000FF4F1082FE01E15BFF4F8081833009F051
:1019800072C080E090E0A6E1B3E48FA398A7A9A776
:10199000BAA76FA178A589A59AA520E030E04AEF03
:1019A00054E40E941F02DC01CB018BA39CA3ADA3D6
:1019B000BEA36BA17CA18DA19EA120E030E040E8F8
:1019C0005FE30E94250488232CF481E090E09AA331
:1019D00089A33FC06BA17CA18DA19EA120E03FEF18
:1019E0004FE757E40E94C50318164CF56FA178A580
:1019F00089A59AA520E030E040E251E40E941F0250
:101A0000DC01CB01BC01CD010E944900DC01CB010E
:101A10009AA389A30FC088EC90E098A38F8F8F8D35
:101A200098A10197F1F798A38F8F89A19AA10197A7
:101A30009AA389A389A19AA1009769F714C06BA101
:101A40007CA18DA19EA10E944900DC01CB019AA33B
:101A500089A389A19AA19E8F8D8F8D8D9E8D0197CF
:101A6000F1F79E8F8D8FDE01A15BBF4FFE01E15B21
:101A7000FF4F80818F5F8C93FE01E15BFF4F808180
:101A8000843008F44BCE0E94721CCE01885A9F4FBE
:101A900064E00E94D60EFE01E65BFF4F91838083D7
:101AA000FE01E65BFF4F808191810E94790FFE016C
:101AB000E85BFF4F882F90E091838083FE01E85B15
:101AC000FF4F808191818130910509F4A3C0FE010F
:101AD000E85BFF4F80819181009709F087C0FE018C
:101AE000E95BFF4F8081823008F080C08CE790E096
:101AF0000E947C1C81E060E00E942B1B87E890E044
:101B00000E947C1C80E090E0AAEFB3E4898F9A8F5A
:101B1000AB8FBC8F698D7A8D8B8D9C8D20E030E0F2
:101B20004AEF54E40E941F02DC01CB018D8B9E8B97
:101B3000AF8BB88F6D897E898F89988D20E030E0DA
:101B400040E85FE30E94250488232CF481E090E0C4
:101B50009C8B8B8B3FC06D897E898F89988D20E00F
:101B60003FEF4FE757E40E94C50318164CF5698D07
:101B70007A8D8B8D9C8D20E030E040E251E40E9414
:101B80001F02DC01CB01BC01CD010E944900DC0138
:101B9000CB019C8B8B8B0FC088EC90E09A8B898B50
:101BA00089899A890197F1F79A8B898B8B899C890E
:101BB00001979C8B8B8B8B899C89009769F714C04C
:101BC0006D897E898F89988D0E944900DC01CB0147
:101BD0009C8B8B8B8B899C89988B8F878F85988921
:101BE0000197F1F7988B8F870E94721CDE01A95B29
:101BF000BF4FFE01E95BFF4F80818F5F8C93FE0139
:101C0000EF5AFF4F1082FE01E95BFF4F8081833066
:101C100008F47BCDFE01EF5AFF4F1082FE01E95B15
:101C2000FF4F8081833071F4FE01E85BFF4F8081BC
:101C300091818130910531F083E990E00E947C1C14
:101C40000E94E80FFE01E95BFF4F10828EC0FE018B
:101C5000E25BFF4F8081882309F087C0FE01EE5AC6
:101C6000FF4F8081882309F480C08CE790E00E94B8
:101C70007C1C81E060E00E942B1B87E890E00E94C2
:101C80007C1C80E090E0AAEFB3E48B879C87AD8753
:101C9000BE876B857C858D859E8520E030E04AEF90
:101CA00054E40E941F02DC01CB018F839887A9872F
:101CB000BA876F81788589859A8520E030E040E891
:101CC0005FE30E94250488232CF481E090E09E834A
:101CD0008D833FC06F81788589859A8520E03FEFAD
:101CE0004FE757E40E94C50318164CF56B857C85B9
:101CF0008D859E8520E030E040E251E40E941F0285
:101D0000DC01CB01BC01CD010E944900DC01CB010B
:101D10009E838D830FC088EC90E09C838B838B81A6
:101D20009C810197F1F79C838B838D819E81019724
:101D30009E838D838D819E81009769F714C06F818A
:101D4000788589859A850E944900DC01CB019E83B4
:101D50008D838D819E819A83898389819A81019760
:101D6000F1F79A8389830E94721CFE01EE5AFF4F9D
:101D70001082FE01E85BFF4F8081918181309105E7
:101D800049F0FE01E95BFF4F8081833019F00E942A
:101D9000721CEFCAC55ADF4F0FB6F894DEBF0FBEF4
:101DA000CDBFCF91DF911F910F910895DF93CF9316
:101DB000CDB7DEB72A970FB6F894DEBF0FBECDBF02
:101DC000998788876A871F821E821D8219821A82DC
:101DD0001B821C824EC08D81282F30E0888599851A
:101DE000FC01E20FF31F8081882F90E0A0E0B0E0BB
:101DF00089839A83AB83BC8320C089819A81AB811C
:101E0000BC812AE030E040E050E0BC01CD010E94FE
:101E10001B3DDA01C90189839A83AB83BC838E8120
:101E20009F819C01220F331FC901880F991F880FC2
:101E3000991F820F931F9F838E8389819A81AB8123
:101E4000BC810097A105B105C1F68D81282F30E036
:101E500088859985FC01E20FF31F8081282F30E0EF
:101E60008E819F81820F931F9F838E838D818F5FD1
:101E70008D839D818A85981708F4ADCF8E819F81CF
:101E80002A960FB6F894DEBF0FBECDBFCF91DF917B
:101E90000895DF93CF9300D000D0CDB7DEB79C83F9
:101EA0008B8319821A821AC08A81882F90E0880F4A
:101EB000991F880F991FFC01E352FD4F208131814A
:101EC0008B819C812817390731F481E089838A81CD
:101ED0008093050306C08A818F5F8A838A818A3056
:101EE00018F389810F900F900F900F90CF91DF9191
:101EF0000895DF93CF9300D00F92CDB7DEB79B83C9
:101F00008A831982809105038823CCF08091050390
:101F1000992787FD9095880F991F0196880F991F23
:101F2000FC01E352FD4F208131818A819B8128177A
:101F3000390729F481E089838FEF80930503898134
:101F40000F900F900F90CF91DF910895DF93CF9373
:101F5000CDB7DEB70E94721C85EA90E00E947C1C1F
:101F600080E060E041E00E94B21380E061E041E087
:101F70000E94B21380E062E041E00E94B21380E070
:101F800063E041E00E94B213CF91DF910895DF93A7
:101F9000CF93CDB7DEB70E94721C87EB90E00E9412
:101FA0007C1C80E060E040E00E94B21380E061E0D1
:101FB00040E00E94B21380E062E040E00E94B21371
:101FC00080E063E040E00E94B213CF91DF9108957A
:101FD000DF93CF93CDB7DEB76C970FB6F894DEBF23
:101FE0000FBECDBF0E94581880E060E041E00E9423
:101FF000B21380E065E041E00E94B21380E090E01F
:10200000AAE7B3E4898F9A8FAB8FBC8F698D7A8DE5
:102010008B8D9C8D20E030E04AEF54E40E941F023B
:10202000DC01CB018D8B9E8BAF8BB88F6D897E8948
:102030008F89988D20E030E040E85FE30E9425041E
:1020400088232CF481E090E09C8B8B8B3FC06D89C2
:102050007E898F89988D20E03FEF4FE757E40E94FB
:10206000C50318164CF5698D7A8D8B8D9C8D20E0FB
:1020700030E040E251E40E941F02DC01CB01BC01D0
:10208000CD010E944900DC01CB019C8B8B8B0FC0E2
:1020900088EC90E09A8B898B89899A890197F1F76E
:1020A0009A8B898B8B899C8901979C8B8B8B8B89D5
:1020B0009C89009769F714C06D897E898F89988DF6
:1020C0000E944900DC01CB019C8B8B8B8B899C8906
:1020D000988B8F878F8598890197F1F7988B8F87D9
:1020E00080E065E040E00E94B21380E090E0AAE763
:1020F000B3E48B879C87AD87BE876B857C858D8598
:102100009E8520E030E04AEF54E40E941F02DC018B
:10211000CB018F839887A987BA876F817885898556
:102120009A8520E030E040E85FE30E9425048823A0
:102130002CF481E090E09E838D833FC06F81788591
:1021400089859A8520E03FEF4FE757E40E94C50359
:1021500018164CF56B857C858D859E8520E030E0DA
:1021600040E251E40E941F02DC01CB01BC01CD0121
:102170000E944900DC01CB019E838D830FC088EC57
:1021800090E09C838B838B819C810197F1F79C83EA
:102190008B838D819E8101979E838D838D819E810E
:1021A000009769F721CF6F81788589859A850E948C
:1021B0004900DC01CB019E838D838D819E819A83B2
:1021C000898389819A810197F1F79A8389830CCF5A
:1021D000DF93CF93CDB7DEB72E970FB6F894DEBF5F
:1021E0000FBECDBF0E94721C88EC90E00E947C1C48
:1021F00081E060E00E942B1B87ED90E00E947C1C38
:1022000080910603813009F08FC0809107038330ED
:1022100009F08AC088E093E00E94B3221092AB03D9
:102220007EC08091AB0328E033E0B9010E94861E96
:1022300080E090E0A0E8BFE38B879C87AD87BE87F6
:102240006B857C858D859E8520E030E04AEF54E4E7
:102250000E941F02DC01CB018F839887A987BA8770
:102260006F81788589859A8520E030E040E85FE3DA
:102270000E94250488232CF481E090E09E838D83C6
:102280003FC06F81788589859A8520E03FEF4FE7D1
:1022900057E40E94C50318164CF56B857C858D8527
:1022A0009E8520E030E040E251E40E941F02DC0104
:1022B000CB01BC01CD010E944900DC01CB019E8312
:1022C0008D830FC088EC90E09C838B838B819C81F5
:1022D0000197F1F79C838B838D819E8101979E836B
:1022E0008D838D819E81009769F714C06F817885F9
:1022F00089859A850E944900DC01CB019E838D83EC
:102300008D819E819A83898389819A810197F1F7D2
:102310009A8389838091AB038F5F8093AB03809115
:10232000AB03853B08F47DCF82E0809307032E96B4
:102330000FB6F894DEBF0FBECDBFCF91DF910895E9
:10234000DF93CF93CDB7DEB72E970FB6F894DEBFED
:102350000FBECDBF0E94721C88EE90E00E947C1CD4
:1023600081E060E00E942B1B81E080930603809156
:102370000603813009F090C080910703823009F094
:102380008BC088E093E00E94B32284EB8093AB0380
:102390007EC08091AB0328E033E0B9010E94861E25
:1023A00080E090E0A0E8BFE38B879C87AD87BE8785
:1023B0006B857C858D859E8520E030E04AEF54E476
:1023C0000E941F02DC01CB018F839887A987BA87FF
:1023D0006F81788589859A8520E030E040E85FE369
:1023E0000E94250488232CF481E090E09E838D8355
:1023F0003FC06F81788589859A8520E03FEF4FE760
:1024000057E40E94C50318164CF56B857C858D85B5
:102410009E8520E030E040E251E40E941F02DC0192
:10242000CB01BC01CD010E944900DC01CB019E83A0
:102430008D830FC088EC90E09C838B838B819C8183
:102440000197F1F79C838B838D819E8101979E83F9
:102450008D838D819E81009769F714C06F81788587
:1024600089859A850E944900DC01CB019E838D837A
:102470008D819E819A83898389819A810197F1F761
:102480009A8389838091AB0381508093AB038091C1
:10249000AB03882309F07DCF83E0809307032E965A
:1024A0000FB6F894DEBF0FBECDBFCF91DF91089578
:1024B000DF93CF93CDB7DEB728970FB6F894DEBF82
:1024C0000FBECDBF8A836B834C8319828B8188308A
:1024D00008F0F4C08C81882309F077C08A81282F06
:1024E00030E038872F838F8198858130910559F1AD
:1024F0002F813885223031052CF48F819885009703
:1025000069F060C02F8138852230310589F18F81D3
:1025100098858330910509F440C054C0AAE3B0E027
:10252000EAE3F0E08081482F8B81282F30E081E0C2
:1025300090E0022E02C0880F991F0A94E2F780955E
:1025400084238C93BDC0A7E3B0E0E7E3F0E0808193
:10255000482F8B81282F30E081E090E0022E02C0CE
:10256000880F991F0A94E2F7809584238C93A8C062
:10257000A4E3B0E0E4E3F0E08081482F8B81282FD2
:1025800030E081E090E0022E02C0880F991F0A948B
:10259000E2F7809584238C9393C0A1E3B0E0E1E35C
:1025A000F0E08081482F8B81282F30E081E090E09F
:1025B000022E02C0880F991F0A94E2F780958423A7
:1025C0008C937EC081E089837BC08C81813009F04F
:1025D00072C08A81282F30E03E832D838D819E81B9
:1025E0008130910549F12D813E81223031052CF455
:1025F0008D819E81009761F05BC02D813E812230EC
:10260000310571F18D819E8183309105E9F150C0D2
:10261000AAE3B0E0EAE3F0E08081482F8B81282F25
:1026200030E081E090E0022E02C0880F991F0A94EA
:10263000E2F7842B8C9344C0A7E3B0E0E7E3F0E03B
:102640008081482F8B81282F30E081E090E0022E9E
:1026500002C0880F991F0A94E2F7842B8C9330C034
:10266000A4E3B0E0E4E3F0E08081482F8B81282FE1
:1026700030E081E090E0022E02C0880F991F0A949A
:10268000E2F7842B8C931CC0A1E3B0E0E1E3F0E01F
:102690008081482F8B81282F30E081E090E0022E4E
:1026A00002C0880F991F0A94E2F7842B8C9308C00C
:1026B00081E0898305C082E0898302C083E0898349
:1026C000898128960FB6F894DEBF0FBECDBFCF919B
:1026D000DF910895DF93CF9300D000D00F92CDB754
:1026E000DEB78A836B8319828A81282F30E03D838D
:1026F0002C838C819D8181309105D1F02C813D818D
:10270000223031052CF48C819D81009761F01FC02F
:102710002C813D812230310581F08C819D81833077
:10272000910581F014C0EAE3F0E08B81808311C051
:10273000E7E3F0E08B8180830CC0E4E3F0E08B8181
:10274000808307C0E1E3F0E08B81808302C081E0F9
:10275000898389810F900F900F900F900F90CF91E8
:10276000DF910895DF93CF93CDB7DEB728970FB6EB
:10277000F894DEBF0FBECDBF8A836B834C83198272
:102780008B81883008F0F4C08C81882309F077C0F1
:102790008A81282F30E038872F838F819885813078
:1027A000910559F12F813885223031052CF48F8124
:1027B0009885009769F060C02F81388522303105F7
:1027C00089F18F8198858330910509F440C054C008
:1027D000ABE3B0E0EBE3F0E08081482F8B81282F62
:1027E00030E081E090E0022E02C0880F991F0A9429
:1027F000E2F7809584238C93BDC0A8E3B0E0E8E3C2
:10280000F0E08081482F8B81282F30E081E090E03C
:10281000022E02C0880F991F0A94E2F78095842344
:102820008C93A8C0A5E3B0E0E5E3F0E08081482FF9
:102830008B81282F30E081E090E0022E02C0880FCB
:10284000991F0A94E2F7809584238C9393C0A2E3A6
:10285000B0E0E2E3F0E08081482F8B81282F30E068
:1028600081E090E0022E02C0880F991F0A94E2F7DF
:10287000809584238C937EC081E089837BC08C818A
:10288000813009F072C08A81282F30E03E832D8389
:102890008D819E818130910549F12D813E812230CB
:1028A00031052CF48D819E81009761F05BC02D81F4
:1028B0003E812230310571F18D819E8183309105F9
:1028C000E9F150C0ABE3B0E0EBE3F0E08081482FEA
:1028D0008B81282F30E081E090E0022E02C0880F2B
:1028E000991F0A94E2F7842B8C9344C0A8E3B0E0CC
:1028F000E8E3F0E08081482F8B81282F30E081E0F1
:1029000090E0022E02C0880F991F0A94E2F7842BF0
:102910008C9330C0A5E3B0E0E5E3F0E08081482F80
:102920008B81282F30E081E090E0022E02C0880FDA
:10293000991F0A94E2F7842B8C931CC0A2E3B0E0A9
:10294000E2E3F0E08081482F8B81282F30E081E0A6
:1029500090E0022E02C0880F991F0A94E2F7842BA0
:102960008C9308C081E0898305C082E0898302C01E
:1029700083E08983898128960FB6F894DEBF0FBE65
:10298000CDBFCF91DF910895DF93CF9300D000D0DA
:102990000F92CDB7DEB78A836B8319828A81282F85
:1029A00030E03D832C838C819D8181309105D1F075
:1029B0002C813D81223031052CF48C819D81009742
:1029C00061F01FC02C813D812230310581F08C8166
:1029D0009D818330910581F014C0EBE3F0E08B81A1
:1029E000808311C0E8E3F0E08B8180830CC0E5E3D5
:1029F000F0E08B81808307C0E2E3F0E08B8180838D
:102A000002C081E0898389810F900F900F900F9011
:102A10000F90CF91DF910895DF93CF93CDB7DEB7BD
:102A200027970FB6F894DEBF0FBECDBF8A836B83A6
:102A30005D834C8319828C819D81009709F478C055
:102A40008B81883008F074C08A81282F30E03F8362
:102A50002E834E815F814130510559F18E819F81D6
:102A60008230910534F42E813F812115310569F0C2
:102A70005CC04E815F814230510579F18E819F812A
:102A80008330910509F43DC050C0E9E3F0E0808156
:102A9000282F30E08B81882F90E0A90102C0559546
:102AA00047958A95E2F7CA018170EC81FD818083A8
:102AB00041C0E6E3F0E08081282F30E08B81882F51
:102AC00090E0A90102C0559547958A95E2F7CA01A1
:102AD0008170EC81FD8180832DC0E3E3F0E0808193
:102AE000282F30E08B81882F90E0A90102C05595F6
:102AF00047958A95E2F7CA018170EC81FD81808358
:102B000019C0E0E3F0E08081282F30E08B81882F2E
:102B100090E0A90102C0559547958A95E2F7CA0150
:102B20008170EC81FD81808305C081E0898302C0D2
:102B300082E08983898127960FB6F894DEBF0FBEA5
:102B4000CDBFCF91DF910895DF93CF93CDB7DEB79F
:102B5000A5E5B0E0E5E5F0E080818E7F8C93A5E50A
:102B6000B0E0E5E5F0E0808182608C93ABE5B0E019
:102B7000EBE5F0E0808180648C93CF91DF91089544
:102B8000DF93CF93CDB7DEB7A5E5B0E0E5E5F0E0A4
:102B900080818B7F8C93A5E5B0E0E5E5F0E0808156
:102BA00088608C93ABE5B0E0EBE5F0E08081806875
:102BB0008C93CF91DF910895DF93CF93CDB7DEB79C
:102BC000A4E5B0E0E4E5F0E080818F7B8C93ABE599
:102BD000B0E0EBE5F0E0808180628C93CF91DF91F3
:102BE0000895DF93CF93CDB7DEB729970FB6F8944A
:102BF000DEBF0FBECDBF8A836B8319828A8181308D
:102C000009F05FC08981282F30E0398728878885BF
:102C100099858230910529F1288539852330310540
:102C200034F4888599858130910561F047C0288505
:102C300039852330310521F18885998584309105C6
:102C400071F13CC0A5E5B0E0E5E5F0E080818E7F64
:102C50008C93A5E5B0E0E5E5F0E080818D7F8C9375
:102C6000BBC0A5E5B0E0E5E5F0E0808181608C9334
:102C7000A5E5B0E0E5E5F0E080818D7F8C93ACC008
:102C8000A5E5B0E0E5E5F0E080818E7F8C93A5E5D9
:102C9000B0E0E5E5F0E0808182608C939DC0A5E521
:102CA000B0E0E5E5F0E0808181608C93A5E5B0E0DF
:102CB000E5E5F0E0808182608C938EC081E08983BD
:102CC0008BC08A81823009F05FC08B81282F30E071
:102CD0003F832E838E819F818230910529F12E8141
:102CE0003F812330310534F48E819F8181309105FD
:102CF00061F047C02E813F812330310521F18E8163
:102D00009F818430910571F13CC0A5E5B0E0E5E517
:102D1000F0E080818B7F8C93A5E5B0E0E5E5F0E005
:102D20008081877F8C9358C0A5E5B0E0E5E5F0E0B1
:102D3000808184608C93A5E5B0E0E5E5F0E08081DA
:102D4000877F8C9349C0A5E5B0E0E5E5F0E08081A0
:102D50008B7F8C93A5E5B0E0E5E5F0E080818860AD
:102D60008C933AC0A5E5B0E0E5E5F0E080818460B1
:102D70008C93A5E5B0E0E5E5F0E0808188608C9378
:102D80002BC081E0898328C08A81833019F58B812B
:102D9000282F30E03D832C838C819D8183309105E9
:102DA00031F02C813D812430310549F010C0A4E57B
:102DB000B0E0E4E5F0E080818F7B8C930DC0A4E56A
:102DC000B0E0E4E5F0E0808180648C9305C081E0B0
:102DD000898302C081E08983898129960FB6F8949E
:102DE000DEBF0FBECDBFCF91DF910895DF93CF93AC
:102DF00000D0CDB7DEB78A8319828A81813041F451
:102E0000ABE5B0E0EBE5F0E0808180648C9318C026
:102E10008A81823041F4ABE5B0E0EBE5F0E08081FF
:102E200080688C930DC08A81833041F4ABE5B0E0BB
:102E3000EBE5F0E0808180628C9302C081E08983C1
:102E400089810F900F90CF91DF910895DF93CF93F9
:102E500000D0CDB7DEB78A8319828A81813041F4F0
:102E6000ABE5B0E0EBE5F0E080818F7B8C9318C0A0
:102E70008A81823041F4ABE5B0E0EBE5F0E080819F
:102E80008F778C930DC08A81833041F4ABE5B0E03D
:102E9000EBE5F0E080818F7D8C9302C081E0898337
:102EA00089810F900F90CF91DF910895DF93CF9399
:102EB00000D00F92CDB7DEB79B838A8319828A81B7
:102EC0009B81009739F08A819B8190935D03809369
:102ED0005C0306C08A819B81009711F482E089839C
:102EE00089810F900F900F90CF91DF9108951F92DD
:102EF0000F920FB60F9211242F933F934F935F932E
:102F00006F937F938F939F93AF93BF93EF93FF93B1
:102F1000DF93CF93CDB7DEB780915C0390915D03D3
:102F2000009729F0E0915C03F0915D030995CF9142
:102F3000DF91FF91EF91BF91AF919F918F917F9121
:102F40006F915F914F913F912F910F900FBE0F9016
:102F50001F901895DF93CF9300D00F92CDB7DEB7B7
:102F60009B838A8319828A819B81009739F08A81A9
:102F70009B8190935F0380935E0302C082E089830C
:102F800089810F900F900F90CF91DF9108951F923C
:102F90000F920FB60F9211242F933F934F935F938D
:102FA0006F937F938F939F93AF93BF93EF93FF9311
:102FB000DF93CF93CDB7DEB780915E0390915F032F
:102FC000009729F0E0915E03F0915F030995CF919E
:102FD000DF91FF91EF91BF91AF919F918F917F9181
:102FE0006F915F914F913F912F910F900FBE0F9076
:102FF0001F901895DF93CF9300D00F92CDB7DEB717
:103000009B838A8319828A819B81009739F08A8108
:103010009B81909361038093600302C082E0898367
:1030200089810F900F900F90CF91DF9108951F929B
:103030000F920FB60F9211242F933F934F935F93EC
:103040006F937F938F939F93AF93BF93EF93FF9370
:10305000DF93CF93CDB7DEB780916003909161038A
:10306000009729F0E0916003F09161030995CF91F9
:10307000DF91FF91EF91BF91AF919F918F917F91E0
:103080006F915F914F913F912F910F900FBE0F90D5
:103090001F901895DF93CF93CDB7DEB7AFE5B0E0C3
:1030A000EFE5F0E0808180688C93CF91DF91089507
:1030B000DF93CF93CDB7DEB7AFE5B0E0EFE5F0E05B
:1030C00080818F778C93CF91DF910895DF93CF9399
:1030D00000D000D00F92CDB7DEB78FEF89831A8270
:1030E0005EC08A81882F90E0FC01ED5EFC4F9081EC
:1030F00081E0692F40E00E94B2131B823DC08B81AA
:10310000882F90E0FC01E15FFC4F90819E012C5FD5
:103110003F4F81E0692FA9010E940C158C81882303
:1031200041F58B81482F50E08A81282F30E0CA0179
:10313000880F991F880F991F820F931FFC01E95E6A
:10314000FC4F808189830FC08B81882F90E0FC0128
:10315000E15FFC4F90819E012C5F3F4F81E0692F22
:10316000A9010E940C158C81882371F389818D83BC
:103170001CC08B818F5F8B838B81843008F4BFCF21
:103180008A81882F90E0FC01ED5EFC4F908181E008
:10319000692F41E00E94B2138A818F5F8A838A81FE
:1031A000843008F49ECF89818D838D810F900F909C
:1031B0000F900F900F90CF91DF910895DF93CF93F1
:1031C000CDB7DEB72E970FB6F894DEBF0FBECDBFDA
:1031D00080E090E0A0E2B2E48B879C87AD87BE8759
:1031E0006B857C858D859E8520E030E04AEF54E438
:1031F0000E941F02DC01CB018F839887A987BA87C1
:103200006F81788589859A8520E030E040E85FE32A
:103210000E94250488232CF481E090E09E838D8316
:103220003FC06F81788589859A8520E03FEF4FE721
:1032300057E40E94C50318164CF56B857C858D8577
:103240009E8520E030E040E251E40E941F02DC0154
:10325000CB01BC01CD010E944900DC01CB019E8362
:103260008D830FC088EC90E09C838B838B819C8145
:103270000197F1F79C838B838D819E8101979E83BB
:103280008D838D819E81009769F714C06F81788549
:1032900089859A850E944900DC01CB019E838D833C
:1032A0008D819E819A83898389819A810197F1F723
:1032B0009A83898388E30E946C198CE00E946C19C0
:1032C00081E00E946C192E960FB6F894DEBF0FBEF7
:1032D000CDBFCF91DF910895DF93CF93CDB7DEB708
:1032E0002F970FB6F894DEBF0FBECDBF8F8783E058
:1032F00067E040E00E94B21383E064E040E00E9497
:10330000B21382E06F850E94C41483E063E041E061
:103310000E94B21380E090E0A0E0B0E48B879C872D
:10332000AD87BE876B857C858D859E8520E030E0EE
:103330004AEF54E40E941F02DC01CB018F8398877F
:10334000A987BA876F81788589859A8520E030E0E2
:1033500040E85FE30E94250488232CF481E090E09C
:103360009E838D833FC06F81788589859A8520E013
:103370003FEF4FE757E40E94C50318164CF56B85E5
:103380007C858D859E8520E030E040E251E40E94FE
:103390001F02DC01CB01BC01CD010E944900DC0110
:1033A000CB019E838D830FC088EC90E09C838B8340
:1033B0008B819C810197F1F79C838B838D819E810A
:1033C00001979E838D838D819E81009769F714C03C
:1033D0006F81788589859A850E944900DC01CB013F
:1033E0009E838D838D819E819A83898389819A8131
:1033F0000197F1F79A83898383E063E040E00E94BC
:10340000B2132F960FB6F894DEBF0FBECDBFCF918B
:10341000DF910895DF93CF93CDB7DEB72F970FB627
:10342000F894DEBF0FBECDBF8F8783E067E041E039
:103430000E94B21383E064E040E00E94B21382E095
:103440006F850E94C41483E063E041E00E94B213E0
:1034500080E090E0A0E0B0E48B879C87AD87BE87DA
:103460006B857C858D859E8520E030E04AEF54E4B5
:103470000E941F02DC01CB018F839887A987BA873E
:103480006F81788589859A8520E030E040E85FE3A8
:103490000E94250488232CF481E090E09E838D8394
:1034A0003FC06F81788589859A8520E03FEF4FE79F
:1034B00057E40E94C50318164CF56B857C858D85F5
:1034C0009E8520E030E040E251E40E941F02DC01D2
:1034D000CB01BC01CD010E944900DC01CB019E83E0
:1034E0008D830FC088EC90E09C838B838B819C81C3
:1034F0000197F1F79C838B838D819E8101979E8339
:103500008D838D819E81009769F714C06F817885C6
:1035100089859A850E944900DC01CB019E838D83B9
:103520008D819E819A83898389819A810197F1F7A0
:103530009A83898383E063E040E00E94B2132F9670
:103540000FB6F894DEBF0FBECDBFCF91DF910895C7
:10355000DF93CF93CDB7DEB727970FB6F894DEBFD2
:103560000FBECDBF9D838C836E834F838C819D81E5
:1035700029EF30E0B9010E948F3D9A8389835DC0B5
:1035800089819A810E94943D8B838F81282F30E01E
:1035900080E190E0AC01421B530B9A018B81882F94
:1035A00090E028173907FCF011C08E816F810E94CE
:1035B0002B1BE981FA8180810E940A1A89819A81F4
:1035C00001969A8389838F818F5F8F83E981FA8146
:1035D0008081882351F78E816F810E942B1B80E2AE
:1035E0000E940A1A1AC081E08E831F8211C08E8148
:1035F0006F810E942B1BE981FA8180810E940A1A47
:1036000089819A8101969A8389838F818F5F8F83C5
:10361000E981FA818081882351F78E816F810E9430
:103620002B1B80E20E940A1A29EF30E080E090E034
:10363000B9010E948F3D9A83898389819A8100977D
:1036400009F09ECF27960FB6F894DEBF0FBECDBF10
:10365000CF91DF910895DF93CF9300D00F92CDB734
:10366000DEB78A836B838A81882319F48B818983EF
:1036700006C08A81813019F48B81805C89838981BD
:1036800080580E946C190F900F900F90CF91DF918E
:103690000895DF93CF93CDB7DEB727970FB6F89491
:1036A000DEBF0FBECDBF9C838B836D834E832F8384
:1036B0008D81882F90E0880F991F880F991F880FA0
:1036C000991F8A838A81805C0E946C1919820EC0BE
:1036D0008981282F30E08B819C81FC01E20FF31F50
:1036E00080810E940A1A89818F5F8983898188304D
:1036F00078F38E816F810E942B1B8D810E940A1AA4
:1037000027960FB6F894DEBF0FBECDBFCF91DF91E5
:1037100008950F931F93DF93CF93CDB7DEB76897CC
:103720000FB6F894DEBF0FBECDBF6B8B7C8B8D8B3D
:103730009E8B1A8219828B899C89AD89BE890097DC
:10374000A105B105B1F580E30E940A1AC0C08A81C3
:10375000082F112707FD10958B899C89AD89BE899B
:103760002AE030E040E050E0BC01CD010E941B3D6A
:10377000DC01CB01282FCE010396FC01E00FF11FE5
:1037800020838B899C89AD89BE892AE030E040E0A6
:1037900050E0BC01CD010E941B3DDA01C9018B8BB9
:1037A0009C8BAD8BBE8B8A818F5F8A8389818F5F73
:1037B00089838B899C89AD89BE890097A105B10554
:1037C00031F6898181508A837EC08A81282F3327F0
:1037D00027FD3095CE010396FC01E20FF31F808197
:1037E000282F30E0388F2F8B8F89988D843091056A
:1037F00009F44FC02F89388D25303105D4F48F89D5
:10380000988D81309105C9F12F89388D223031058D
:103810002CF48F89988D009761F152C02F89388DD3
:103820002230310571F18F89988D8330910569F1CE
:1038300047C02F89388D27303105B9F18F89988D90
:10384000883091055CF42F89388D2530310529F1B8
:103850008F89988D8630910521F132C02F89388D5E
:103860002830310531F18F89988D8930910529F102
:1038700027C080E30E940A1A23C081E30E940A1A2B
:103880001FC082E30E940A1A1BC083E30E940A1A27
:1038900017C084E30E940A1A13C085E30E940A1A23
:1038A0000FC086E30E940A1A0BC087E30E940A1A1F
:1038B00007C088E30E940A1A03C089E30E940A1A1B
:1038C0008A8181508A838A8188230CF07ECF689612
:1038D0000FB6F894DEBF0FBECDBFCF91DF911F9121
:1038E0000F910895DF93CF93CDB7DEB781E00E94AB
:1038F0006C19CF91DF910895DF93CF9300D0CDB7AE
:10390000DEB79A8389830AC0E981FA8180810E94A7
:103910000A1A89819A8101969A838983E981FA81B9
:103920008081882389F70F900F90CF91DF910895C0
:10393000DF93CF9300D000D000D0CDB7DEB78A831D
:103940007C836B8319828B819C81009709F46FC003
:103950008A81282F30E03E832D838D819E818330A4
:10396000910509F43EC02D813E81243031057CF45F
:103970008D819E818130910531F12D813E812230F2
:10398000310544F58D819E810097B1F04DC02D81A8
:103990003E812530310599F18D819E8185309105DB
:1039A0003CF12D813E812630310581F18D819E8152
:1039B0008730910591F138C02B813C8180E0B901BD
:1039C0000E94560736C02B813C8181E0B9010E94DC
:1039D00056072FC02B813C8182E0B9010E94560717
:1039E00028C02B813C8183E0B9010E94560721C089
:1039F0002B813C8184E0B9010E9456071AC02B81BB
:103A00003C8185E0B9010E94560713C02B813C819F
:103A100086E0B9010E9456070CC02B813C8187E0EB
:103A2000B9010E94560705C081E0898302C082E087
:103A30008983898126960FB6F894DEBF0FBECDBF6D
:103A4000CF91DF910895AF92BF92CF92DF92EF9224
:103A5000FF920F931F93DF93CF93CDB7DEB760979D
:103A60000FB6F894DEBF0FBECDBF9B878A871C823E
:103A70008A859B85009709F496C0EA85FB8580813D
:103A80009181CC01A0E0B0E000D000D0EDB7FEB74E
:103A9000319680839183A283B38360E070E080E0FD
:103AA00090E020EF30E040E050E0EE24FF2487017A
:103AB000AA24BB2465016894A2F80E94E71D0F9018
:103AC0000F900F900F90DC01CB018B8394E08B81E2
:103AD000292F281B822F8A8380E060E00E94C41473
:103AE000198208C080E0698141E00E94B213898197
:103AF0008F5F898399818A819817A0F38BEF90E07B
:103B00000E947C1C80E06CE00E942B1BEA85FB85F8
:103B100080819181CC01A0E0B0E0BC01CD010E9488
:103B2000891B81E060E00E942B1B88E091E00E94ED
:103B30007C1C81E06CE00E942B1B8A81882F90E026
:103B4000A0E0B0E0BC01CD010E94891BCE0105962A
:103B50009D878C87E8E2F3E0FF87EE87F5E0F88B3E
:103B6000EE85FF8500808E859F8501969F878E87D5
:103B7000EC85FD8500828C859D8501969D878C87CF
:103B800098899150988BE889EE2351F7CE010596DC
:103B90000E94F326CE0105966AEF70E00E9431285C
:103BA0000E94721C02C081E08C838C8160960FB6EB
:103BB000F894DEBF0FBECDBFCF91DF911F910F9163
:103BC000FF90EF90DF90CF90BF90AF900895AF92AD
:103BD000BF92CF92DF92EF92FF920F931F93DF93EA
:103BE000CF93CDB7DEB764970FB6F894DEBF0FBEA4
:103BF000CDBF6D837E838F83988729873A874B87D4
:103C00005C87ED86FE860F87188BA98ABA8ACB8AD5
:103C1000DC8A29893A894B895C898D859E85AF85A7
:103C2000B88979018A01E81AF90A0A0B1B0B29A144
:103C30003AA14BA15CA18D819E81AF81B885281BE3
:103C4000390B4A0B5B0BC801B7010E94E83C7B01B2
:103C50008C0129853A854B855C858D819E81AF815C
:103C6000B885281B390B4A0B5B0BC801B7010E94B2
:103C70003D3DDA01C9019C01AD018D859E85AF8571
:103C8000B889820F931FA41FB51F89839A83AB83C2
:103C9000BC8389819A81AB81BC81BC01CD016496D2
:103CA0000FB6F894DEBF0FBECDBFCF91DF911F914D
:103CB0000F91FF90EF90DF90CF90BF90AF9008955D
:103CC000DF93CF93CDB7DEB7EAE3F0E08FEE8083EA
:103CD000E7E3F0E08FE08083E4E3F0E08FEF8083C0
:103CE000E1E3F0E08AEB8083EBE3F0E01082E8E3CD
:103CF000F0E08FEF8083E5E3F0E08FEF8083E2E395
:103D0000F0E08CEF8083CF91DF910895AF92BF9266
:103D1000CF92DF92EF92FF920F931F93DF93CF9397
:103D200000D000D000D0CDB7DEB78C837E836D830A
:103D30008D819E810097F1F18C81882F90E0A0E029
:103D4000B0E000D000D0EDB7FEB73196808391830C
:103D5000A283B38360E070E080E090E024EB30E089
:103D600040E050E00F2EF0E9EF2EF1E0FF2EF0E002
:103D70000F2FF0E01F2FF02D0F2EFCE8AF2EFAE0F2
:103D8000BF2EF0E0CF2EF0E0DF2EF02D0E94E71DD9
:103D90000F900F900F900F90DC01CB019A838983D5
:103DA0008D819E8129813A8160E27EE4A9010E9491
:103DB000722502C082E08B838B8126960FB6F89421
:103DC000DEBF0FBECDBFCF91DF911F910F91FF904E
:103DD000EF90DF90CF90BF90AF900895DF93CF9397
:103DE000CDB7DEB78091740390917503A0917603EF
:103DF000B09177030196A11DB11D80937403909338
:103E00007503A0937603B0937703209174033091E8
:103E100075034091760350917703809178039091D8
:103E20007903A0917A03B0917B03281739074A07D9
:103E30005B07F1F4E0917203F0917303099510921E
:103E40007403109275031092760310927703809199
:103E50007C03813029F480E062E00E942F2008C0BA
:103E600080917C03823021F480E061E00E942F2069
:103E7000CF91DF910895DF93CF9300D000D000D091
:103E8000CDB7DEB78A837C836B8319828A81282F22
:103E900030E03E832D838D819E8183309105B9F082
:103EA0002D813E8124303105C9F08D819E8100979E
:103EB00019F58B819C818F3F910509F028F4E2E58B
:103EC000F0E08B8180831AC081E0898317C0ECE425
:103ED000F0E08B819C819183808310C08B819C81D9
:103EE0008F3F910509F028F4E4E4F0E08B818083B2
:103EF00005C081E0898302C081E08983898126969B
:103F00000FB6F894DEBF0FBECDBFCF91DF910895FD
:103F1000DF93CF9300D000D000D0CDB7DEB78A8337
:103F20007C836B8319828A81282F30E03E832D8326
:103F30008D819E818330910599F02D813E812430C1
:103F40003105B9F08D819E810097E9F4E2E5F0E05A
:103F50008081882F90E0EB81FC819183808315C064
:103F6000ECE4F0E080819181EB81FC81918380839E
:103F70000CC0E4E4F0E08081882F90E0EB81FC81CC
:103F80009183808302C081E08983898126960FB660
:103F9000F894DEBF0FBECDBFCF91DF910895DF93C0
:103FA000CF9300D000D000D0CDB7DEB78A837C831A
:103FB0006B8319828A81282F30E03E832D838D8187
:103FC0009E818130910519F12D813E81223031058C
:103FD0002CF48D819E81009761F035C02D813E814A
:103FE00022303105D9F08D819E8184309105E9F030
:103FF0002AC08B819C818F3F910509F028F4ECE564
:10400000F0E08B81808321C081E089831EC0EAE4D7
:10401000F0E08B819C819183808317C0E8E4F0E01D
:104020008B819C819183808310C08B819C818F3F89
:10403000910509F028F4E3E4F0E08B81808305C06A
:1040400081E0898302C081E08983898126960FB649
:10405000F894DEBF0FBECDBFCF91DF910895DF93FF
:10406000CF93CDB7DEB727970FB6F894DEBF0FBE5C
:10407000CDBF8A836B8319828B81813009F077C031
:104080008A81282F30E03F832E838E819F81833069
:10409000910509F441C02E813F81243031057CF423
:1040A0008E819F818130910539F12E813F812230AF
:1040B0003105D4F58E819F810097B1F055C02E81D6
:1040C0003F8125303105C1F18E819F818530910579
:1040D000DCF02E813F8126303105B1F18E819F8148
:1040E00087309105C9F140C0A9E5B0E0E9E5F0E00D
:1040F000808180688C93B8C0A9E5B0E0E9E5F0E084
:10410000808180648C93B0C0A9E5B0E0E9E5F0E07F
:10411000808180628C93A8C0A9E5B0E0E9E5F0E079
:10412000808180618C93A0C0A9E5B0E0E9E5F0E072
:10413000808188608C9398C0A9E5B0E0E9E5F0E063
:10414000808184608C9390C0A9E5B0E0E9E5F0E05F
:10415000808182608C9388C0A9E5B0E0E9E5F0E059
:10416000808181608C9380C081E089837DC08B8158
:10417000823009F077C08A81282F30E03D832C837C
:104180008C819D818330910509F441C02C813D8152
:10419000243031057CF48C819D818130910539F189
:1041A0002C813D8122303105D4F58C819D81009791
:1041B000B1F055C02C813D8125303105C1F18C8194
:1041C0009D8185309105DCF02C813D8126303105C3
:1041D000B1F18C819D8187309105C9F140C0A9E57D
:1041E000B0E0E9E5F0E080818F778C933DC0A9E5F0
:1041F000B0E0E9E5F0E080818F7B8C9335C0A9E5E4
:10420000B0E0E9E5F0E080818F7D8C932DC0A9E5D9
:10421000B0E0E9E5F0E080818F7E8C9325C0A9E5D0
:10422000B0E0E9E5F0E08081877F8C931DC0A9E5CF
:10423000B0E0E9E5F0E080818B7F8C9315C0A9E5C3
:10424000B0E0E9E5F0E080818D7F8C930DC0A9E5B9
:10425000B0E0E9E5F0E080818E7F8C9305C081E0DD
:10426000898302C081E08983898127960FB6F894FB
:10427000DEBF0FBECDBFCF91DF910895DF93CF9307
:1042800000D00F92CDB7DEB79B838A8319828A81D3
:104290009B81009709F4B6C0EA81FB81808181305F
:1042A00079F4A3E5B0E0E3E5F0E08081877F8C93CB
:1042B000A3E5B0E0E3E5F0E080818F7B8C933EC026
:1042C000EA81FB818081823079F4A3E5B0E0E3E507
:1042D000F0E08081877F8C93A3E5B0E0E3E5F0E038
:1042E000808180648C932AC0EA81FB818081833045
:1042F00079F4A3E5B0E0E3E5F0E0808188608C9399
:10430000A3E5B0E0E3E5F0E080818F7B8C9316C0FD
:10431000EA81FB818081843079F4A3E5B0E0E3E5B4
:10432000F0E0808188608C93A3E5B0E0E3E5F0E005
:10433000808180648C9302C081E08983A3E5B0E032
:10434000E3E5F0E080818F7C8C93A3E5B0E0E3E5CA
:10435000F0E08081282FEA81FB818281882F90E024
:1043600082959295907F9827807F9827822B8C93B7
:10437000EA81FB818381813041F4A9E5B0E0E9E580
:10438000F0E0808182608C930FC0EA81FB818381A1
:10439000823041F4A9E5B0E0E9E5F0E080818D7F6D
:1043A0008C9302C081E08983EA81FB818481813022
:1043B00041F4A9E5B0E0E9E5F0E0808181608C930B
:1043C0000FC0EA81FB818481823041F4A9E5B0E02D
:1043D000E9E5F0E080818E7F8C9302C081E08983E3
:1043E000A3E5B0E0E3E5F0E08081887F8C93A3E56E
:1043F000B0E0E3E5F0E09081EA81FB818181892BE7
:104400008C9302C082E0898389810F900F900F9076
:10441000CF91DF910895DF93CF93CDB7DEB76A9741
:104420000FB6F894DEBF0FBECDBF9B8B8A8B7D8B02
:104430006C8B1C8681E08B871A8619868A899B89FA
:10444000009709F484C0CE010D969F8B8E8BEDE210
:10445000F3E0F98FE88FF5E0FA8FE88DF98D0080B1
:10446000888D998D0196998F888FEE89FF890082BA
:104470008E899F8901969F8B8E8B9A8D91509A8FF2
:10448000EA8DEE2351F780E06AEF70E00E94CF1FC3
:104490008C899D89CC01A0E0B0E028EE33E040E0BB
:1044A00050E0BC01CD010E94E83CDC01CB018D83D2
:1044B0009E83AF83B8878D819E81AF81B8852AEFB7
:1044C00030E040E050E0BC01CD010E941B3DDA012C
:1044D000C90189839A83AB83BC83CE010D960E9468
:1044E0003E212DC0E8E5F0E080818695882F90E0A0
:1044F00081709070882319F189859A859C0140E02C
:1045000050E089819A81AB81BC81281739074A071D
:104510005B0749F41B86A8E5B0E0E8E5F0E08081A0
:1045200082608C930CC089859A8501969A878987C9
:10453000A8E5B0E0E8E5F0E0808182608C938B85AF
:10454000813081F28A899B890E943E2102C082E0EB
:104550008C878C856A960FB6F894DEBF0FBECDBFF0
:10456000CF91DF910895DF93CF9300D00F92CDB715
:10457000DEB79B838A8319828A819B81009709F425
:1045800096C2EA81FB8180818130E9F4AEE4B0E03B
:10459000EEE4F0E080818F7E8C93AEE4B0E0EEE458
:1045A000F0E08081877F8C93AFE4B0E0EFE4F0E04F
:1045B00080818D7F8C93AFE4B0E0EFE4F0E0808108
:1045C0008E7F8C93DEC1EA81FB8180818230E9F4A9
:1045D000AEE4B0E0EEE4F0E080818F7E8C93AEE458
:1045E000B0E0EEE4F0E08081877F8C93AFE4B0E050
:1045F000EFE4F0E080818D7F8C93AFE4B0E0EFE4F6
:10460000F0E0808181608C93BCC1EA81FB81808174
:104610008330E9F4AEE4B0E0EEE4F0E080818F7E38
:104620008C93AEE4B0E0EEE4F0E08081877F8C9381
:10463000AFE4B0E0EFE4F0E0808182608C93AFE41F
:10464000B0E0EFE4F0E080818E7F8C939AC1EA8144
:10465000FB8180818430E9F4AEE4B0E0EEE4F0E088
:1046600080818F7E8C93AEE4B0E0EEE4F0E0808158
:10467000877F8C93AFE4B0E0EFE4F0E0808182606C
:104680008C93AFE4B0E0EFE4F0E0808181608C9344
:1046900078C1EA81FB8180818530E9F4AEE4B0E045
:1046A000EEE4F0E080818F7E8C93AEE4B0E0EEE447
:1046B000F0E0808188608C93AFE4B0E0EFE4F0E05C
:1046C00080818D7F8C93AFE4B0E0EFE4F0E08081F7
:1046D0008E7F8C9356C1EA81FB8180818630E9F41C
:1046E000AEE4B0E0EEE4F0E080818F7E8C93AEE447
:1046F000B0E0EEE4F0E0808188608C93AFE4B0E05D
:10470000EFE4F0E080818D7F8C93AFE4B0E0EFE4E4
:10471000F0E0808181608C9334C1EA81FB818081EB
:104720008730E9F4AEE4B0E0EEE4F0E080818F7E23
:104730008C93AEE4B0E0EEE4F0E0808188608C938E
:10474000AFE4B0E0EFE4F0E0808182608C93AFE40E
:10475000B0E0EFE4F0E080818E7F8C9312C1EA81BB
:10476000FB8180818830E9F4AEE4B0E0EEE4F0E073
:1047700080818F7E8C93AEE4B0E0EEE4F0E0808147
:1047800088608C93AFE4B0E0EFE4F0E08081826079
:104790008C93AFE4B0E0EFE4F0E0808181608C9333
:1047A000F0C0EA81FB8180818930E9F4AEE4B0E0B9
:1047B000EEE4F0E0808180618C93AEE4B0E0EEE462
:1047C000F0E08081877F8C93AFE4B0E0EFE4F0E02D
:1047D00080818D7F8C93AFE4B0E0EFE4F0E08081E6
:1047E0008E7F8C93CEC0EA81FB8180818A30E9F490
:1047F000AEE4B0E0EEE4F0E0808180618C93AEE462
:10480000B0E0EEE4F0E08081877F8C93AFE4B0E02D
:10481000EFE4F0E080818D7F8C93AFE4B0E0EFE4D3
:10482000F0E0808181608C93ACC0EA81FB81808163
:104830008B30E9F4AEE4B0E0EEE4F0E0808180613A
:104840008C93AEE4B0E0EEE4F0E08081877F8C935F
:10485000AFE4B0E0EFE4F0E0808182608C93AFE4FD
:10486000B0E0EFE4F0E080818E7F8C938AC0EA8133
:10487000FB8180818C30E9F4AEE4B0E0EEE4F0E05E
:10488000808180618C93AEE4B0E0EEE4F0E0808162
:10489000877F8C93AFE4B0E0EFE4F0E0808182604A
:1048A0008C93AFE4B0E0EFE4F0E0808181608C9322
:1048B00068C0EA81FB8180818D30E9F4AEE4B0E02C
:1048C000EEE4F0E0808180618C93AEE4B0E0EEE451
:1048D000F0E0808188608C93AFE4B0E0EFE4F0E03A
:1048E00080818D7F8C93AFE4B0E0EFE4F0E08081D5
:1048F0008E7F8C9346C0EA81FB8180818E30E9F403
:10490000AEE4B0E0EEE4F0E0808180618C93AEE450
:10491000B0E0EEE4F0E0808188608C93AFE4B0E03A
:10492000EFE4F0E0808182608C93AFE4B0E0EFE4EC
:10493000F0E080818E7F8C9324C0EA81FB818081AE
:104940008F30E9F4AEE4B0E0EEE4F0E08081806125
:104950008C93AEE4B0E0EEE4F0E0808188608C936C
:10496000AFE4B0E0EFE4F0E0808182608C93AFE4EC
:10497000B0E0EFE4F0E0808181608C9302C081E0E0
:104980008983AFE4B0E0EFE4F0E080818F708C9336
:10499000AFE4B0E0EFE4F0E08081282FEA81FB8112
:1049A0008381882F90E082959295907F9827807FD1
:1049B0009827822B8C93AFE4B0E0EFE4F0E08081A5
:1049C000282FEA81FB818281882F90E00024969530
:1049D00087950794969587950794982F802D822B1D
:1049E0008C93EA81FB818481813041F4A9E5B0E0B8
:1049F000E9E5F0E0808180618C930FC0EA81FB8162
:104A00008481823041F4A9E5B0E0E9E5F0E08081FD
:104A10008F7E8C9302C081E08983EA81FB8185814E
:104A2000813041F4A9E5B0E0E9E5F0E080818860FB
:104A30008C930FC0EA81FB818581823041F4A9E526
:104A4000B0E0E9E5F0E08081877F8C9302C081E0EF
:104A50008983EA81FB818681813041F4A9E5B0E058
:104A6000E9E5F0E0808184608C930FC0EA81FB81EE
:104A70008681823041F4A9E5B0E0E9E5F0E080818B
:104A80008B7F8C9302C081E08983AEE4B0E0EEE4DA
:104A9000F0E08081887F8C93AEE4B0E0EEE4F0E05B
:104AA0009081EA81FB818181892B8C9302C082E015
:104AB000898389810F900F900F90CF91DF91089596
:104AC000DF93CF9300D0CDB7DEB79A838983E6E436
:104AD000F0E089819A81918380830F900F90CF912C
:104AE000DF910895DF93CF93CDB7DEB72D970FB643
:104AF000F894DEBF0FBECDBF9B838A837D836C831A
:104B00005F834E8319828A819B81009709F45FC17C
:104B1000EA81FB8180818E3009F056C1EA81FB81F8
:104B20008181282F30E03D872C878C859D858330BF
:104B3000910579F12C853D85243031055CF48C8517
:104B40009D858130910589F02C853D852230310588
:104B5000C9F047C08C859D858430910539F12C853D
:104B60003D852530310589F13CC0E6E4F0E08C81DB
:104B70009D81880F991F880F991F880F991F918316
:104B8000808331C0E6E4F0E08C819D819183808355
:104B90002AC0E6E4F0E08C819D81969587959695F4
:104BA000879596958795918380831DC0E6E4F0E014
:104BB0008C819D8196958795929582958F70892796
:104BC0009F708927918380830EC0E6E4F0E08C819A
:104BD0009D81880F892F881F990B919591838083E0
:104BE00002C081E089832E813F818C819D81821763
:104BF000930708F4E6C0EA81FB818281823009F0E4
:104C00006BC0EA81FB818381882309F065C0EA815A
:104C1000FB818181282F30E03B872A878A859B850D
:104C20008330910579F12A853B85243031055CF488
:104C30008A859B858130910589F02A853B852230C4
:104C40003105C9F047C08A859B858430910539F1CB
:104C50002A853B852530310589F13CC0EAE4F0E046
:104C60008E819F81880F991F880F991F880F991F28
:104C70009183808331C0EAE4F0E08E819F8191834B
:104C800080832AC0EAE4F0E08E819F819695879523
:104C90009695879596958795918380831DC0EAE4C4
:104CA000F0E08E819F8196958795929582958F7081
:104CB00089279F708927918380830EC0EAE4F0E002
:104CC0008E819F81880F892F881F990B91959183E1
:104CD000808302C081E08983EA81FB818381823005
:104CE00009F06CC0EA81FB818281882309F066C0EB
:104CF000EA81FB818181282F30E0398728878885E8
:104D000099858330910579F12885398524303105DD
:104D10005CF4888599858130910589F028853985ED
:104D200022303105C9F047C08885998584309105C6
:104D300039F1288539852530310589F13CC0E8E411
:104D4000F0E08E819F81880F991F880F991F880F2F
:104D5000991F918380833DC0E8E4F0E08E819F81BC
:104D60009183808336C0E8E4F0E08E819F81969540
:104D7000879596958795969587959183808329C089
:104D8000E8E4F0E08E819F819695879592958295D3
:104D90008F7089279F708927918380831AC0E8E4E8
:104DA000F0E08E819F81880F892F881F990B919544
:104DB000918380830EC081E089830BC081E0898369
:104DC00008C081E0898305C081E0898302C082E058
:104DD000898389812D960FB6F894DEBF0FBECDBFB3
:104DE000CF91DF910895DF93CF9300D00F92CDB78D
:104DF000DEB79B838A8319828A819B81009709F49D
:104E0000B6C0EA81FB818081813079F4A5E4B0E00D
:104E1000E5E4F0E08081877F8C93A5E4B0E0E5E4F1
:104E2000F0E080818F7B8C933EC0EA81FB818081A2
:104E3000823079F4A5E4B0E0E5E4F0E08081877F9A
:104E40008C93A5E4B0E0E5E4F0E0808180648C938D
:104E50002AC0EA81FB818081833079F4A5E4B0E047
:104E6000E5E4F0E0808188608C93A5E4B0E0E5E4BF
:104E7000F0E080818F7B8C9316C0EA81FB8180817A
:104E8000843079F4A5E4B0E0E5E4F0E08081886066
:104E90008C93A5E4B0E0E5E4F0E0808180648C933D
:104EA00002C081E08983A5E4B0E0E5E4F0E0808120
:104EB0008F7C8C93A5E4B0E0E5E4F0E08081282FBE
:104EC000EA81FB818281882F90E082959295907F84
:104ED0009827807F9827822B8C93EA81FB8183819E
:104EE000813041F4A9E5B0E0E9E5F0E08081806837
:104EF0008C930FC0EA81FB818381823041F4A9E564
:104F0000B0E0E9E5F0E080818F778C9302C081E02A
:104F10008983EA81FB818481813041F4A9E5B0E095
:104F2000E9E5F0E0808180648C930FC0EA81FB8129
:104F30008481823041F4A9E5B0E0E9E5F0E08081C8
:104F40008F7B8C9302C081E08983A5E4B0E0E5E427
:104F5000F0E08081887F8C93A5E4B0E0E5E4F0E0A8
:104F60009081EA81FB818181892B8C9302C082E050
:104F7000898389810F900F900F90CF91DF910895D1
:104F80008F929F92AF92BF92CF92DF92EF92FF9259
:104F90000F931F93DF93CF9300D000D0CDB7DEB730
:104FA0009B838A836C8319828A819B81009709F491
:104FB00044C0EA81FB8180818430E1F5EA81FB8194
:104FC00082818230B9F50F2EF3E48F2E9924F02DD3
:104FD0008C81882F90E0A0E0B0E000D000D0EDB749
:104FE000FEB7319680839183A283B38360E070E043
:104FF00080E090E024E630E040E050E0EE24FF2442
:1050000087010F2EFFEFAF2EF0E0BF2EF0E0CF2E86
:10501000F0E0DF2EF02D0E94E71D0F900F900F9013
:105020000F90DC01CB01F40180838A819B810E9477
:10503000F32605C081E0898302C082E089838981EB
:105040000F900F900F900F90CF91DF911F910F91C4
:10505000FF90EF90DF90CF90BF90AF909F908F9098
:105060000895DF93CF93CDB7DEB76A970FB6F89464
:10507000DEBF0FBECDBF9B8B8A8B7D8B6C8B1C865E
:1050800081E08B871A8619868A899B89009709F4A3
:1050900082C0CE010D969F8B8E8BE2E3F3E0F98FF9
:1050A000E88FF5E0FA8FE88DF98D0080888D998D75
:1050B0000196998F888FEE89FF8900828E899F895A
:1050C00001969F8B8E8B9A8D91509A8FEA8DEE234D
:1050D00051F784E06AEF70E00E94CF1F8C899D89B0
:1050E000CC01A0E0B0E028EE33E040E050E0BC01AD
:1050F000CD010E94E83CDC01CB018D839E83AF8310
:10510000B8878D819E81AF81B8852AEF30E040E07D
:1051100050E0BC01CD010E941B3DDA01C901898329
:105120009A83AB83BC83CE010D960E94F3262BC0DD
:10513000E8E5F0E08081881F8827881F813019F515
:1051400089859A859C0140E050E089819A81AB81F4
:10515000BC81281739074A075B0749F41B86A8E575
:10516000B0E0E8E5F0E0808180688C930CC0898530
:105170009A8501969A878987A8E5B0E0E8E5F0E08E
:10518000808180688C938B85813091F28A899B899C
:105190000E94F32602C082E08C878C856A960FB647
:1051A000F894DEBF0FBECDBFCF91DF910895DF939E
:1051B000CF93CDB7DEB76B970FB6F894DEBF0FBEB7
:1051C000CDBF9C8B8B8B7E8B6D8B1D8681E08C87FE
:1051D0001A8619868B899C89009709F485C0CE01AF
:1051E0000E96988F8F8BE7E3F3E0FA8FE98FF5E067
:1051F000FB8FE98DFA8D0080898D9A8D01969A8FAB
:10520000898FEF89F88D00828F89988D0196988F0C
:105210008F8B9B8D91509B8FEB8DEE2351F78FEFF2
:105220008B870DC08B85282F30E08D899E89B90131
:105230000E94073D009731F08B8581508B878B85CD
:10524000882381F78B85282F30E084E0B9010E9404
:10525000CF1F8B85282F30E040E050E08D819E816C
:10526000AF81B885BC01CD010E941B3DDA01C901A7
:1052700089839A83AB83BC83CE010E960E94F3266A
:105280002BC0E8E5F0E08081881F8827881F8130E7
:1052900019F589859A859C0140E050E089819A81C1
:1052A000AB81BC81281739074A075B0749F41C8684
:1052B000A8E5B0E0E8E5F0E0808180688C930CC060
:1052C00089859A8501969A878987A8E5B0E0E8E5FF
:1052D000F0E0808180688C938C85813091F28B899D
:1052E0009C890E94F32602C082E08D878D856B9693
:1052F0000FB6F894DEBF0FBECDBFCF91DF910895FA
:10530000DF93CF93CDB7DEB76A970FB6F894DEBFC1
:105310000FBECDBF9A8B898B7C8B6B8B4D8B1B8685
:105320001A8619868B899C89009709F46AC08B8933
:105330009C8990937303809372038EEE9EE1909309
:10534000630380936203CE010C969F8B8E8BECE3FC
:10535000F3E0F98FE88FF5E0FA8FE88DF98D0080A2
:10536000888D998D0196998F888FEE89FF890082AB
:105370008E899F8901969F8B8E8B9A8D91509A8FE3
:10538000EA8DEE2351F784E06AEF70E00E94CF1FB0
:1053900089899A89CC01A0E0B0E028EE33E040E0B2
:1053A00050E0BC01CD010E94E83CDC01CB018D83C3
:1053B0009E83AF83B8878D819E81AF81B8852AEFA8
:1053C00030E040E050E0BC01CD010E941B3DDA011D
:1053D000C90189839A83AB83BC838D8980937C03C5
:1053E00089819A81AB81BC81809378039093790302
:1053F000A0937A03B0937B03CE010C960E94F32610
:1054000002C082E08B878B856A960FB6F894DEBF68
:105410000FBECDBFCF91DF910895DF93CF9300D022
:105420000F92CDB7DEB78A836B8319828A81813070
:1054300041F4AEE4B0E0EEE4F0E0808180648C936F
:105440000DC08A81882341F4AEE4B0E0EEE4F0E0E0
:1054500080818F7B8C9302C081E089838B81813036
:1054600041F4A9E5B0E0E9E5F0E0808180628C9349
:105470000DC08B81823041F4A9E5B0E0E9E5F0E0B0
:1054800080818F7D8C9302C081E0898389810F9018
:105490000F900F90CF91DF910895DF93CF9300D0BD
:1054A000CDB7DEB78A8319828A81813041F4AEE4B8
:1054B000B0E0EEE4F0E0808180648C930DC08A81DE
:1054C000882341F4AEE4B0E0EEE4F0E080818F7B2D
:1054D0008C9302C081E0898389810F900F90CF91D6
:1054E000DF910895DF93CF93CDB7DEB7E6E4F0E028
:1054F00080819181CF91DF910895DF93CF9300D088
:1055000000D0CDB7DEB78A837C836B8319828B8111
:105510009C81009769F08A81882F90E0880F991FFD
:10552000FC01EE59FC4F8B819C819183808302C0EA
:1055300082E0898389810F900F900F900F90CF9117
:10554000DF9108951F920F920FB60F9211242F939F
:105550003F934F935F936F937F938F939F93AF93FB
:10556000BF93EF93FF93DF93CF93CDB7DEB78091D7
:10557000620390916303009729F0E0916203F09138
:1055800063030995CF91DF91FF91EF91BF91AF91A7
:105590009F918F917F916F915F914F913F912F914B
:1055A0000F900FBE0F901F9018951F920F920FB67D
:1055B0000F9211242F933F934F935F936F937F9399
:1055C0008F939F93AF93BF93EF93FF93DF93CF930B
:1055D000CDB7DEB78091640390916503009729F001
:1055E000E0916403F09165030995CF91DF91FF91FC
:1055F000EF91BF91AF919F918F917F916F915F914B
:105600004F913F912F910F900FBE0F901F901895C3
:105610001F920F920FB60F9211242F933F934F9327
:105620005F936F937F938F939F93AF93BF93EF930A
:10563000FF93DF93CF93CDB7DEB780916A0390914C
:105640006B03009729F0E0916A03F0916B030995D1
:10565000CF91DF91FF91EF91BF91AF919F918F918A
:105660007F916F915F914F913F912F910F900FBE5E
:105670000F901F9018951F920F920FB60F92112442
:105680002F933F934F935F936F937F938F939F934A
:10569000AF93BF93EF93FF93DF93CF93CDB7DEB775
:1056A0008091680390916903009729F0E091680365
:1056B000F09169030995CF91DF91FF91EF91BF912F
:1056C000AF919F918F917F916F915F914F913F919A
:1056D0002F910F900FBE0F901F9018951F920F9251
:1056E0000FB60F9211242F933F934F935F936F93B5
:1056F0007F938F939F93AF93BF93EF93FF93DF932A
:10570000CF93CDB7DEB78091660390916703009782
:1057100029F0E0916603F09167030995CF91DF913D
:10572000FF91EF91BF91AF919F918F917F916F9179
:105730005F914F913F912F910F900FBE0F901F904F
:1057400018951F920F920FB60F9211242F933F932B
:105750004F935F936F937F938F939F93AF93BF9379
:10576000EF93FF93DF93CF93CDB7DEB780916C03B8
:1057700090916D03009729F0E0916C03F0916D0317
:105780000995CF91DF91FF91EF91BF91AF919F91DB
:105790008F917F916F915F914F913F912F910F90DA
:1057A0000FBE0F901F9018951F920F920FB60F9279
:1057B00011242F933F934F935F936F937F938F9316
:1057C0009F93AF93BF93EF93FF93DF93CF93CDB7A7
:1057D000DEB780916E0390916F03009729F0E091FE
:1057E0006E03F0916F030995CF91DF91FF91EF91D7
:1057F000BF91AF919F918F917F916F915F914F91E9
:105800003F912F910F900FBE0F901F9018951F92F0
:105810000F920FB60F9211242F933F934F935F93E4
:105820006F937F938F939F93AF93BF93EF93FF9368
:10583000DF93CF93CDB7DEB7809170039091710362
:10584000009729F0E0917003F09171030995CF91D1
:10585000DF91FF91EF91BF91AF919F918F917F91D8
:105860006F915F914F913F912F910F900FBE0F90CD
:105870001F901895DF93CF93CDB7DEB7A6970FB6DD
:10588000F894DEBF0FBECDBF9CA38BA37EA36DA3F8
:105890001AA219A21D8E1E8E1F8E18A2198E1A8E84
:1058A0001B8E1C8E23E43EE285E0B9010E947D2A16
:1058B00026E13EE284E0B9010E947D2A85E061E0B4
:1058C0000E942F2081E061E00E940D2AEBA1FCA143
:1058D0008081EBA1FCA19181692F41E00E94B2136C
:1058E00080E090E0A8ECB2E48D8B9E8BAF8BB88FFC
:1058F0006D897E898F89988D2BEA3AEA4AE250E4D5
:105900000E941F02DC01CB01898B9A8BAB8BBC8B75
:1059100069897A898B899C8920E030E040E85FE3DF
:105920000E94250488231CF481E0888B91C069893A
:105930007A898B899C8920E030E04FE753E40E940C
:10594000C50318160CF07BC06D897E898F89988DF0
:1059500020E030E04AE754E40E941903DC01CB0167
:105960008C879D87AE87BF876C857D858E859F855B
:1059700020E030E04AEF54E40E941F02DC01CB013A
:1059800088879987AA87BB87688579858A859B855B
:1059900020E030E040E85FE30E94250488232CF4F7
:1059A00081E090E09F838E833FC0688579858A85FA
:1059B0009B8520E03FEF4FE757E40E94C503181690
:1059C0004CF56C857D858E859F8520E030E040E23A
:1059D00051E40E941F02DC01CB01BC01CD010E94F9
:1059E0004900DC01CB019F838E830FC088EC90E0DF
:1059F0009D838C838C819D810197F1F79D838C839E
:105A00008E819F8101979F838E838E819F810097D6
:105A100069F724C0688579858A859B850E9449003D
:105A2000DC01CB019F838E838E819F819B838A8340
:105A30008A819B810197F1F79B838A830FC06989D3
:105A40007A898B899C890E944900DC01CB01888B73
:105A50008889898389818A95F1F78983EBA1FCA1E3
:105A60008081EBA1FCA19181692F40E00E94B213DB
:105A70000BC0898D9A8DAB8DBC8D0196A11DB11D7A
:105A8000898F9A8FAB8FBC8F80917D0390917E031D
:105A9000009731F080917F0390918003009761F42B
:105AA000898D9A8DAB8DBC8D803523EC920720E0DB
:105AB000A20720E0B207E8F285E062E00E942F2012
:105AC00084E062E00E942F20809183039091840300
:105AD0000097A1F420917F033091800380917D0392
